{
  "contractName": "EmergencyContract",
  "abi": [
    {
      "constant": true,
      "inputs": [],
      "name": "firefighters",
      "outputs": [
        {
          "name": "",
          "type": "uint256"
        }
      ],
      "payable": false,
      "stateMutability": "view",
      "type": "function",
      "signature": "0x87267f20"
    },
    {
      "constant": true,
      "inputs": [],
      "name": "ambulances",
      "outputs": [
        {
          "name": "",
          "type": "uint256"
        }
      ],
      "payable": false,
      "stateMutability": "view",
      "type": "function",
      "signature": "0x8d9c28b9"
    },
    {
      "constant": true,
      "inputs": [],
      "name": "police",
      "outputs": [
        {
          "name": "",
          "type": "uint256"
        }
      ],
      "payable": false,
      "stateMutability": "view",
      "type": "function",
      "signature": "0xc7330dd4"
    },
    {
      "inputs": [],
      "payable": false,
      "stateMutability": "nonpayable",
      "type": "constructor",
      "signature": "constructor"
    },
    {
      "constant": false,
      "inputs": [
        {
          "name": "n_a",
          "type": "uint256"
        },
        {
          "name": "n_f",
          "type": "uint256"
        },
        {
          "name": "n_p",
          "type": "uint256"
        }
      ],
      "name": "set_resources",
      "outputs": [],
      "payable": false,
      "stateMutability": "nonpayable",
      "type": "function",
      "signature": "0x3e9fbc77"
    }
  ],
  "bytecode": "0x6080604052600080556000600155600060025534801561001e57600080fd5b50600080819055506000600181905550600060028190555033600360006101000a81548173ffffffffffffffffffffffffffffffffffffffff021916908373ffffffffffffffffffffffffffffffffffffffff1602179055506101eb806100866000396000f3fe608060405260043610610062576000357c0100000000000000000000000000000000000000000000000000000000900463ffffffff1680633e9fbc771461006757806387267f20146100b65780638d9c28b9146100e1578063c7330dd41461010c575b600080fd5b34801561007357600080fd5b506100b46004803603606081101561008a57600080fd5b81019080803590602001909291908035906020019092919080359060200190929190505050610137565b005b3480156100c257600080fd5b506100cb6101ad565b6040518082815260200191505060405180910390f35b3480156100ed57600080fd5b506100f66101b3565b6040518082815260200191505060405180910390f35b34801561011857600080fd5b506101216101b9565b6040518082815260200191505060405180910390f35b3373ffffffffffffffffffffffffffffffffffffffff16600360009054906101000a900473ffffffffffffffffffffffffffffffffffffffff1673ffffffffffffffffffffffffffffffffffffffff1614151561019357600080fd5b826000819055508160018190555080600281905550505050565b60015481565b60005481565b6002548156fea165627a7a723058200a25f83ff64ffb63e32d8b6f487d9d5f8e60a33032d87cddb2f95974648818460029",
  "source": "pragma solidity >=0.5.0;\n\ncontract EmergencyContract\n{\n    uint public ambulances = 0;\n    uint public firefighters = 0;\n    uint public police = 0;\n    address private owner;\n    \n    constructor () public\n    { \n        ambulances = 0;\n        firefighters = 0;\n        police = 0;\n        owner = msg.sender; \n    } \n    \n    modifier onlyOwner()\n    { \n        require(owner == msg.sender);\n        _; \n    }\n    \n    function set_resources(uint n_a, uint n_f, uint n_p) onlyOwner public\n    {\n        ambulances = n_a;\n        firefighters = n_f;\n        police = n_p;\n    }\n}",
  "sourcePath": "/Users/ryukgt/Documents/Uni/Cuarto/Segundo Cuatrimestre/TFG/blockchain_emergencias/blockchain-project/contracts/emergency_resources.sol",
  "compiler": {
    "name": "solc",
    "version": "0.5.0+commit.1d4f565a.Emscripten.clang"
  },
  "schemaVersion": "3.0.5",
  "updatedAt": "2019-03-28T13:03:46.353Z",
  "devdoc": {
    "methods": {}
  },
  "userdoc": {
    "methods": {}
  }
}