{
  "contractName": "EmergencyContract",
  "abi": [
    {
      "inputs": [],
      "payable": false,
      "stateMutability": "nonpayable",
      "type": "constructor",
      "signature": "constructor"
    },
    {
      "constant": false,
      "inputs": [
        {
          "name": "n_a",
          "type": "uint256"
        },
        {
          "name": "n_f",
          "type": "uint256"
        },
        {
          "name": "n_p",
          "type": "uint256"
        }
      ],
      "name": "set_resources",
      "outputs": [],
      "payable": false,
      "stateMutability": "nonpayable",
      "type": "function",
      "signature": "0x3e9fbc77"
    },
    {
      "constant": true,
      "inputs": [],
      "name": "get_ambulances",
      "outputs": [
        {
          "name": "",
          "type": "uint256"
        }
      ],
      "payable": false,
      "stateMutability": "view",
      "type": "function",
      "signature": "0x13721eb4"
    },
    {
      "constant": true,
      "inputs": [],
      "name": "get_firefighters",
      "outputs": [
        {
          "name": "",
          "type": "uint256"
        }
      ],
      "payable": false,
      "stateMutability": "view",
      "type": "function",
      "signature": "0x9a6e42d0"
    },
    {
      "constant": true,
      "inputs": [],
      "name": "get_police",
      "outputs": [
        {
          "name": "",
          "type": "uint256"
        }
      ],
      "payable": false,
      "stateMutability": "view",
      "type": "function",
      "signature": "0xdb5bf730"
    }
  ],
  "bytecode": "0x6080604052600080556000600155600060025534801561001e57600080fd5b5033600360006101000a81548173ffffffffffffffffffffffffffffffffffffffff021916908373ffffffffffffffffffffffffffffffffffffffff1602179055506101f68061006f6000396000f3fe608060405260043610610062576000357c0100000000000000000000000000000000000000000000000000000000900463ffffffff16806313721eb4146100675780633e9fbc77146100925780639a6e42d0146100e1578063db5bf7301461010c575b600080fd5b34801561007357600080fd5b5061007c610137565b6040518082815260200191505060405180910390f35b34801561009e57600080fd5b506100df600480360360608110156100b557600080fd5b81019080803590602001909291908035906020019092919080359060200190929190505050610140565b005b3480156100ed57600080fd5b506100f66101b6565b6040518082815260200191505060405180910390f35b34801561011857600080fd5b506101216101c0565b6040518082815260200191505060405180910390f35b60008054905090565b3373ffffffffffffffffffffffffffffffffffffffff16600360009054906101000a900473ffffffffffffffffffffffffffffffffffffffff1673ffffffffffffffffffffffffffffffffffffffff1614151561019c57600080fd5b826000819055508160018190555080600281905550505050565b6000600154905090565b600060025490509056fea165627a7a72305820ffd3680f47acca81eb724f68f930cd393ec22a5f5f3c50ca96ed7f3987efa3930029",
  "source": "pragma solidity >=0.5.0;\n\ncontract EmergencyContract\n{\n    uint ambulances = 0;\n    uint firefighters = 0;\n    uint police = 0;\n    address private owner;\n    \n    constructor () public\n    { \n        owner = msg.sender; \n    } \n    \n    modifier onlyOwner()\n    { \n        require(owner == msg.sender);\n        _; \n    }\n    \n    function set_resources(uint n_a, uint n_f, uint n_p) onlyOwner public\n    {\n        ambulances = n_a;\n        firefighters = n_f;\n        police = n_p;\n    }\n    \n    function get_ambulances() public view returns (uint)\n    {\n        return ambulances;\n    }\n    \n    function get_firefighters() public view returns (uint)\n    {\n        return firefighters;\n    }\n    \n    function get_police() public view returns (uint)\n    {\n        return police;\n    }\n}",
  "sourcePath": "/Users/ryukgt/Documents/Uni/Cuarto/Segundo Cuatrimestre/TFG/blockchain_emergencias/blockchain-project/contracts/emergency_resources.sol",
  "compiler": {
    "name": "solc",
    "version": "0.5.0+commit.1d4f565a.Emscripten.clang"
  },
  "schemaVersion": "3.0.5",
  "updatedAt": "2019-03-25T14:27:48.480Z",
  "devdoc": {
    "methods": {}
  },
  "userdoc": {
    "methods": {}
  }
}