{
  "contractName": "EmergencyContract",
  "abi": [
    {
      "constant": true,
      "inputs": [],
      "name": "firefighters",
      "outputs": [
        {
          "name": "",
          "type": "int256"
        }
      ],
      "payable": false,
      "stateMutability": "view",
      "type": "function",
      "signature": "0x87267f20"
    },
    {
      "constant": true,
      "inputs": [],
      "name": "ambulances",
      "outputs": [
        {
          "name": "",
          "type": "int256"
        }
      ],
      "payable": false,
      "stateMutability": "view",
      "type": "function",
      "signature": "0x8d9c28b9"
    },
    {
      "constant": true,
      "inputs": [],
      "name": "state",
      "outputs": [
        {
          "name": "",
          "type": "bool"
        }
      ],
      "payable": false,
      "stateMutability": "view",
      "type": "function",
      "signature": "0xc19d93fb"
    },
    {
      "constant": true,
      "inputs": [],
      "name": "police",
      "outputs": [
        {
          "name": "",
          "type": "int256"
        }
      ],
      "payable": false,
      "stateMutability": "view",
      "type": "function",
      "signature": "0xc7330dd4"
    },
    {
      "constant": true,
      "inputs": [
        {
          "name": "",
          "type": "uint256"
        }
      ],
      "name": "organizations",
      "outputs": [
        {
          "name": "",
          "type": "string"
        }
      ],
      "payable": false,
      "stateMutability": "view",
      "type": "function",
      "signature": "0xe792dd8a"
    },
    {
      "inputs": [],
      "payable": false,
      "stateMutability": "nonpayable",
      "type": "constructor",
      "signature": "constructor"
    },
    {
      "constant": false,
      "inputs": [
        {
          "name": "n_a",
          "type": "int256"
        },
        {
          "name": "n_f",
          "type": "int256"
        },
        {
          "name": "n_p",
          "type": "int256"
        }
      ],
      "name": "set_resources",
      "outputs": [],
      "payable": false,
      "stateMutability": "nonpayable",
      "type": "function",
      "signature": "0x3754547d"
    },
    {
      "constant": false,
      "inputs": [
        {
          "name": "o",
          "type": "string"
        }
      ],
      "name": "set_organization",
      "outputs": [],
      "payable": false,
      "stateMutability": "nonpayable",
      "type": "function",
      "signature": "0x080ccab8"
    },
    {
      "constant": true,
      "inputs": [],
      "name": "get_organizations_length",
      "outputs": [
        {
          "name": "",
          "type": "uint256"
        }
      ],
      "payable": false,
      "stateMutability": "view",
      "type": "function",
      "signature": "0xc00adbf8"
    },
    {
      "constant": false,
      "inputs": [
        {
          "name": "r_1",
          "type": "int256"
        },
        {
          "name": "r_2",
          "type": "int256"
        },
        {
          "name": "r_3",
          "type": "int256"
        }
      ],
      "name": "send_resources",
      "outputs": [],
      "payable": false,
      "stateMutability": "nonpayable",
      "type": "function",
      "signature": "0xe85878f2"
    },
    {
      "constant": false,
      "inputs": [],
      "name": "check_request",
      "outputs": [
        {
          "name": "",
          "type": "bool"
        }
      ],
      "payable": false,
      "stateMutability": "nonpayable",
      "type": "function",
      "signature": "0xa145e512"
    }
  ],
  "bytecode": "0x608060405234801561001057600080fd5b5060008081905550600060018190555060006002819055506001600460006101000a81548160ff02191690831515021790555033600460016101000a81548173ffffffffffffffffffffffffffffffffffffffff021916908373ffffffffffffffffffffffffffffffffffffffff16021790555061071e806100936000396000f3fe6080604052600436106100a4576000357c0100000000000000000000000000000000000000000000000000000000900463ffffffff168063080ccab8146100a95780633754547d1461017157806387267f20146101c05780638d9c28b9146101eb578063a145e51214610216578063c00adbf814610245578063c19d93fb14610270578063c7330dd41461029f578063e792dd8a146102ca578063e85878f21461037e575b600080fd5b3480156100b557600080fd5b5061016f600480360360208110156100cc57600080fd5b81019080803590602001906401000000008111156100e957600080fd5b8201836020820111156100fb57600080fd5b8035906020019184600183028401116401000000008311171561011d57600080fd5b91908080601f016020809104026020016040519081016040528093929190818152602001838380828437600081840152601f19601f8201169050808301925050505050505091929192905050506103cd565b005b34801561017d57600080fd5b506101be6004803603606081101561019457600080fd5b8101908080359060200190929190803590602001909291908035906020019092919050505061046b565b005b3480156101cc57600080fd5b506101d56104e1565b6040518082815260200191505060405180910390f35b3480156101f757600080fd5b506102006104e7565b6040518082815260200191505060405180910390f35b34801561022257600080fd5b5061022b6104ed565b604051808215151515815260200191505060405180910390f35b34801561025157600080fd5b5061025a610546565b6040518082815260200191505060405180910390f35b34801561027c57600080fd5b50610285610553565b604051808215151515815260200191505060405180910390f35b3480156102ab57600080fd5b506102b4610566565b6040518082815260200191505060405180910390f35b3480156102d657600080fd5b50610303600480360360208110156102ed57600080fd5b810190808035906020019092919050505061056c565b6040518080602001828103825283818151815260200191508051906020019080838360005b83811015610343578082015181840152602081019050610328565b50505050905090810190601f1680156103705780820380516001836020036101000a031916815260200191505b509250505060405180910390f35b34801561038a57600080fd5b506103cb600480360360608110156103a157600080fd5b81019080803590602001909291908035906020019092919080359060200190929190505050610627565b005b3373ffffffffffffffffffffffffffffffffffffffff16600460019054906101000a900473ffffffffffffffffffffffffffffffffffffffff1673ffffffffffffffffffffffffffffffffffffffff1614151561042957600080fd5b600381908060018154018082558091505090600182039060005260206000200160009091929091909150908051906020019061046692919061064d565b505050565b3373ffffffffffffffffffffffffffffffffffffffff16600460019054906101000a900473ffffffffffffffffffffffffffffffffffffffff1673ffffffffffffffffffffffffffffffffffffffff161415156104c757600080fd5b826000819055508160018190555080600281905550505050565b60015481565b60005481565b60008060005414801561050257506000600154145b801561051057506000600254145b15610531576000600460006101000a81548160ff0219169083151502179055505b600460009054906101000a900460ff16905090565b6000600380549050905090565b600460009054906101000a900460ff1681565b60025481565b60038181548110151561057b57fe5b906000526020600020016000915090508054600181600116156101000203166002900480601f01602080910402602001604051908101604052809291908181526020018280546001816001161561010002031660029004801561061f5780601f106105f45761010080835404028352916020019161061f565b820191906000526020600020905b81548152906001019060200180831161060257829003601f168201915b505050505081565b826000540360008190555081600154036001819055508060025403600281905550505050565b828054600181600116156101000203166002900490600052602060002090601f016020900481019282601f1061068e57805160ff19168380011785556106bc565b828001600101855582156106bc579182015b828111156106bb5782518255916020019190600101906106a0565b5b5090506106c991906106cd565b5090565b6106ef91905b808211156106eb5760008160009055506001016106d3565b5090565b9056fea165627a7a7230582085634026c79ee6652398d86ce187072e7de225ffcaa8b96b1f76ec467561d1f60029",
  "source": "pragma solidity >=0.5.0;\n\ncontract EmergencyContract\n{\n    int public ambulances;\n    int public firefighters;\n    int public police;\n    string[] public organizations;\n    bool public state;\n    address private owner;\n    \n    constructor () public\n    { \n        ambulances = 0;\n        firefighters = 0;\n        police = 0;\n        state=true;\n        owner = msg.sender; \n    } \n    \n    modifier onlyOwner()\n    { \n        require(owner == msg.sender);\n        _; \n    }\n    \n    function set_resources(int n_a, int n_f, int n_p) onlyOwner public\n    {\n        ambulances = n_a;\n        firefighters = n_f;\n        police = n_p;\n    }\n\n    function set_organization(string memory o) onlyOwner public\n    {\n        organizations.push(o);\n    }\n\n    function get_organizations_length() public view returns(uint)\n    {\n        return organizations.length;\n    }\n\n    function send_resources(int r_1, int r_2, int r_3) public\n    {\n        ambulances = ambulances-r_1;\n        firefighters = firefighters-r_2;\n        police = police-r_3;\n    }\n\n    function check_request() public returns(bool)\n    {\n        if(ambulances == 0 && firefighters == 0 && police == 0)\n            state = false;\n        return state;\n    }\n}",
  "sourcePath": "/Users/ryukgt/Documents/Uni/Cuarto/Segundo Cuatrimestre/TFG/blockchain_emergencias/blockchain-project/contracts/emergency_resources.sol",
  "compiler": {
    "name": "solc",
    "version": "0.5.0+commit.1d4f565a.Emscripten.clang"
  },
  "schemaVersion": "3.0.6",
  "updatedAt": "2019-04-29T11:25:47.659Z",
  "devdoc": {
    "methods": {}
  },
  "userdoc": {
    "methods": {}
  }
}